:020000040800F2
:1000000068040020AD0100082F110008010E00084F
:100010002D110008B9020008ED11000800000000D1
:100020000000000000000000000000003311000884
:10003000BB02000800000000311100083511000863
:10004000C7010008C7010008C7010008C701000870
:10005000C7010008C7010008C7010008C701000860
:10006000C7010008C7010008C7010008C701000850
:10007000C7010008C7010008C7010008C701000840
:10008000C7010008C7010008C70100080000000000
:10009000000000000000000000000000C701000890
:1000A000C7010008C7010008C7010008C701000810
:1000B000C7010008C7010008C7010008C701000800
:1000C000C7010008C7010008C7010008C7010008F0
:1000D000C7010008C7010008C701000800000000B0
:1000E000C7010008C7010008C701000800000000A0
:1000F000000000000000000000000000C701000830
:1001000000000000C7010008C7010008C70100087F
:1001100000000000000000000000000000000000DF
:10012000C7010008C7010008C7010008C70100088F
:10013000C7010008000000000000000000000000EF
:10014000000000000000000000000000C7010008DF
:10015000C7010008C7010008C7010008C70100085F
:10016000C7010008C70100080000000000000000EF
:10017000000000000000000000000000000000007F
:1001800000000000C701000800000000000000009F
:10019000C7010008DFF810D000F07CF800480047E5
:1001A00055130008AFF3008068040020064880471C
:1001B00006480047FEE7FEE7FEE7FEE7FEE7FEE74C
:1001C000FEE7FEE7FEE7FEE7D11100089501000813
:1001D0002DE9F05F0546002092469B46884606467C
:1001E000814640241BE0284641464746224600F00F
:1001F00041F853465A46C01A914110D31146184649
:10020000224600F028F82D1A67EB01084F462246D7
:100210000120002100F01FF817EB00094E41201EBD
:10022000A4F10104DFDC484631462A464346BDE8D6
:10023000F09FD2B201E000F8012B491EFBD27047BB
:100240000022F6E710B513460A4604461946FFF7A2
:10025000F0FF204610BD202A04DB203A00FA02F10C
:10026000002070479140C2F1200320FA03F31943A4
:1002700090407047202A04DB203A21FA02F0002146
:10028000704721FA02F3D040C2F1200291400843A6
:1002900019467047064C074D06E0E06840F0010340
:1002A00094E8070098471034AC42F6D3FFF776FF86
:1002B000D0130008F0130008FEE7704772B6FEE79F
:1002C00070B5044600F0DEF80546601C02D0044814
:1002D0000078044400F0D6F8401BA042FAD370BD69
:1002E000000000202DE9F84F00224FF001080325FF
:1002F0004FF00F0E0B6808FA02F42340A34271D1AD
:100300004E68012E05D0022E03D0112E01D0122EE0
:1003100015D18668570005FA07FC26EA0C06D1F8C5
:100320000CC00CFA07FC4CEA060CC0F808C0466882
:10033000A6430C79C4F30014944034434460C66867
:10034000570005FA07FC8C6826EA0C06BC403443CB
:10035000C4604C68022C01D0122C13D1D40800EBDD
:100360008404A346D4F8209054074FEAD46A0EFAC6
:100370000AF629EA06090E6906FA0AF646EA0906A5
:10038000CBF8206004680E7924EA0C0406F003061A
:10039000BE40264306604C68E40056D52E4C2668C5
:1003A00046F480462660246822F0030604F4804464
:1003B00000942A4C3444A446D4F808489607370FD2
:1003C0000EFA07F6B443264EB04201D1002615E0DE
:1003D000244EB04201D1012610E0234EB04202D19A
:1003E00002260BE031E0214EB04201D1032605E0A8
:1003F0001F4EB04201D1042600E00726BE4026432E
:10040000CCF808681B4E34684F689C43FF0300D546
:100410001C433460174E361D34684F689C43BF033D
:1004200000D51C433460134E083634684F689C4333
:10043000FF0200D51C4334600E4E0C3634684F6802
:100440009C43BF0200D51C433460521C102AFFF4A9
:1004500051AFBDE8F88F0000443802400030014041
:10046000000002400004024000080240000C02406C
:1004700000100240003C01400AB18161704709044C
:10048000FBE7000001488068704700000000002082
:1004900070B5040025D094F83D00002520B984F8FB
:1004A0003C50204600F04EF9242084F83D0020689E
:1004B000016821F0010101602068016841F40041F8
:1004C00001602068016821F40041016000F096FAA3
:1004D0004D4A6168914201D84C4900E04C4988423C
:1004E00001D2012070BD4B492368B0FBF1F15E6879
:1004F00026F03F060E435E606368934206D94FF4D0
:10050000967359434FF47A73B1FBF3F12368491C96
:100510001E6A26F03F06314319626168914210D885
:100520004900401EB0FBF1F2521CC2F30B02042A38
:1005300001D2042022E0B0FBF1F0401CC0F30B001C
:100540001CE0A268F2B301EBC10303EB0116431EEA
:10055000B3FBF6F35B1C43F480431B0549D092B315
:1005600001EBC10202EB0111401EB0FBF1F0401C97
:10057000C0F30B0040F4804040F400402168CA6999
:100580004CF6FF739A431043C861D4E90710014346
:100590002068026822F0C00211430160D4E903011F
:1005A00001432068826848F2FF339A431143816017
:1005B000D4E9050108432168CA6822F0FF0210430C
:1005C000C86001E00EE016E02068016841F001011A
:1005D00001602564202084F83D00256384F83E50A6
:1005E000002070BD01EB4106431EB3FBF6F35B1C1C
:1005F000B3E70120C2E701EB4101401EB0FBF1F07F
:10060000401CC0F30B00B7E7A086010080841E00E9
:1006100000093D0040420F002DE9F84F1F4690466B
:100620008A460446DDF82890FFF72CFF054694F82B
:100630003D0020287FD11923012240492046009502
:1006400000F06AFC002876D194F83C00012872D0B2
:10065000012084F83C0020680168C90703D10168C3
:1006600041F0010101602068016821F4006101602E
:10067000212084F83D00102084F83E0000262664E6
:10068000C4F824806785608D20852D48E0622B4664
:100690004A465146204600F0CBFB90B9206841699C
:1006A0008069009036E02A464946204600F0B3FCB7
:1006B00050B1206C042804D12068016841F4007115
:1006C00001600120BDE8F88F606A21680078086148
:1006D000606A401C6062618D491E6185218D491EE2
:1006E00089B2218522685369DB435B070BD451B182
:1006F00000781061606A401C6062608D401E6085F9
:10070000208D401E20852A464946204600F0DEFB0B
:100710000028CED1208D0028C5D154F83D0B0168AA
:1007200041F400710160202004F81E09E677667725
:100730000020C7E7FFE70220C4E700000200100026
:100740000000FFFF10B586B0044614216846FFF78D
:1007500077FD13492068884220D11248016841F092
:10076000020101600068694600F002000590C020A7
:100770000090122001900120029003200390042099
:1007800004900948FFF7AEFD06481030016841F4B7
:1007900000110160006800F40010059006B010BD63
:1007A0000054004030380240000402400248816892
:1007B0000278114481607047000000200B4810B59A
:1007C000016841F400710160016841F480610160D9
:1007D000016841F480710160032000F063F800209B
:1007E00000F006F800F024F8002010BD003C0240A4
:1007F00070B50D4D04464FF47A712878B1FBF0F0D6
:100800000A490968B1FBF0F000F0E6FA48B9102C8B
:1008100007D200222146501E00F024F800206C6010
:1008200070BD012070BD0000000000200C00002001
:100830000B4882B0016841F480410160006800F417
:10084000804000900648001F016841F0805101601F
:10085000006800F080500090072002B000F022B83D
:1008600044380240F0B40E4B1B680C46C3F302231D
:10087000C3F10705042D00D90425191D072901D24C
:10088000002300E0DB1E012606FA05F1491E214087
:1008900099409E40761E16403143F0BC00F0A7BC44
:1008A0000CED00E0064900F0070208684FF6FF0370
:1008B000184040EA0220034A1043086070470000D5
:1008C0000CED00E00000FA052DE9F0470E460500AA
:1008D00065D0DFF81481D8F80000F7B200F00F00FF
:1008E000B04207D288F80070D8F8000000F00F007E
:1008F000B04254D128683D4C810712D5400703D53A
:10090000206840F4E05020602878000703D5206874
:1009100040F4604020602068A96820F0F00008439F
:1009200020602878C0072DD0304968680839012830
:1009300012D0022813D0032811D009688907002992
:100940002DDA216821F0030101432160FFF79AFDB0
:10095000814641F2883A0EE009688903EFE70968A9
:100960008901ECE7FFF78EFDA0EB0901514502D9A3
:100970000320BDE8F0872068696800F00C00B0EB48
:10098000810FEFD1D8F80010404601F00F01B142BD
:1009900007D90770006800F00F00B04201D00120B5
:1009A000E7E72878400705D52068E96820F4E0509B
:1009B000084320602878000706D52068296920F4BC
:1009C000604040EAC100206000F028F82168084A31
:1009D000C1F30311515CC84006490860064800682D
:1009E000FFF706FF0020C4E7003C02400838024041
:1009F000B81300080C00002004000020044805493A
:100A000000680968044AC1F38221515CC8407047FC
:100A10000C00002008380240C8130008154810B523
:100A2000006810F00C02144813D04110042A0FD0B3
:100A3000082A0ED10F4C241F2268236802F03F02BF
:100A40005B0207D52068C0F38810A0FB010106E017
:100A5000084610BD2168C1F38811A1FB00010023E5
:100A6000FFF7B6FB2168C1F30141491C4900B0FB07
:100A7000F1F010BD083802400024F4002DE9F84FD1
:100A800004006ED02078DFF83C93C007A9F104057C
:100A90004AD009F104000168C1F38101012908D09D
:100AA0000068C0F3810002280AD1D9F80000400292
:100AB00006D52868800337D560680028E1D033E088
:100AC0006068B0F5803F10D0B0F5A02F286810D036
:100AD00020F480302860286820F480202860606836
:100AE000A8B1FFF7CFFC06460DE0286840F480303F
:100AF000F4E740F480202860F7E700BFFFF7C2FC6E
:100B0000801B642873D828688003F7D50CE0FFF7B2
:100B1000B9FC064605E000BFFFF7B4FC801B642863
:100B2000F0D828688003F7D42078DFF89C8280070B
:100B30004FF0000A3ED5A348001D016811F00C0FCC
:100B400008D00068C0F3810002280BD1D9F800005A
:100B5000400207D42868800716D5E068012800D134
:100B600012E02BE1E068B8B10120C8F80000FFF7FF
:100B700089FC064605E000BFFFF784FC801B0228C5
:100B8000C0D828688007F7D52868216920F0F800C8
:100B900040EAC10028600DE0C8F800A0FFF772FC31
:100BA000064604E0FFF76EFC801B02281FD8286869
:100BB0008007F7D42078000722D5824E83486169E8
:100BC000703671B101210160FFF75CFC074604E05B
:100BD000FFF758FCC01B022809D830688007F7D5FA
:100BE0000EE0C0F800A0FFF74DFC074605E082E0EC
:100BF000FFF748FCC01B02287DD830688007F7D477
:100C00002078400768D5DFF8BCB100270BF13C0B1A
:100C1000DBF80000C0000BD4DBF8001041F080517D
:100C2000CBF80010DBF80000012700F080500090A6
:100C3000674E3068C00510D4306840F48070306072
:100C4000FFF720FC009005E0FFF71CFC0099401A1C
:100C5000022850D83068C005F6D55A4EA0686C36C8
:100C600001280FD00528306810D020F00100306036
:100C7000306820F004003060A068B8B1FFF702FCD3
:100C800000900FE0306840F00100F4E740F004000D
:100C90003060F7E7FFF7F6FB0099411A41F2883020
:100CA000814266D830688007F4D50EE0FFF7EAFB92
:100CB000009007E0FFF7E6FB0099411A41F2883007
:100CC000814256D830688007F4D42FB1DBF8001089
:100CD00021F08051CBF80010A069C8B33949091D33
:100CE0000968C1F3810102294AD00228504607D081
:100CF000C8F8600000E03CE0FFF7C4FB04463BE0BE
:100D00004746C8F86000FFF7BDFB064605E000BF98
:100D1000FFF7B8FB801B02282BD828688001F7D486
:100D2000D4E907010843A16A2A4A490802EB0141B4
:100D3000626A41EA8211084394F82C1040EA01618A
:100D4000C9F8001001203866FFF79CFB044606E056
:100D500036E000BFFFF796FB001B022809D8286881
:100D60008001F7D52CE000BFFFF78CFB001B0228A9
:100D700002D90320BDE8F88F28688001F4D41FE071
:100D80000128F7D0D9F80000E26900F4800191420F
:100D900014D1226A00F03F0191420FD147F6C07191
:100DA000626A0140914209D1A26A00F44031914245
:100DB00004D1E16A00F07060884201D00120D9E7D7
:100DC0000020D7E70438024000004742800E474227
:100DD000007000400000FFFF10B5401EB0F1807FA2
:100DE00001D3012010BD4FF0E02460610F21601796
:100DF00000F0FDF90020A06107202061002010BD57
:100E0000FEE701684A69D24352050FD46FF480624D
:100E10004A61002140F8301F202242738173026929
:100E200042F0040202610173012070470020704704
:100E3000F8B50446C06A1E460D461746082807D076
:100E4000012805D010F5803F02D0206B122804D174
:100E50002068016841F480710160134600224FF060
:100E600001112046009600F057F840B12068006854
:100E7000C00502D54FF4007020640320F8BD20693E
:100E8000B0F5804F0ED00620216800EAD51040F062
:100E9000F000086133463A460B49204600F070F8EE
:100EA00078B902E005F0FE0000E0E8B221680861D0
:100EB000054933463A46891F204600F061F800286C
:100EC000DCD00120F8BD00000800010070B5164616
:100ED0000D4604460DE02046FFF793FF08B10120C0
:100EE00070BD681C05D0FFF7CDFA801BA84207D85B
:100EF00035B120684069C0434007ECD4002070BD84
:100F0000002044F8300F20216173A073216941F063
:100F1000200121612073E2E72DE9F0471E4690464B
:100F20000D460446C1F30747DDF8209008E0701C29
:100F300006D0FFF7A7FAA0EB0900B0420FD876B1B0
:100F40002068012F18D0806925EA00000004000CF9
:100F500014D000214145EAD00020BDE8F0870020F0
:100F600044F8300F20216173A073216941F0200102
:100F7000216120730120F0E74069E5E70121E9E7FD
:100F80002DE9F0479A4691460E46044600254FF05B
:100F90002008C1F3074725E020684069C0434005A9
:100FA00014D42068016841F40071016021686FF475
:100FB00080604861256384F83D8084F83E50206C51
:100FC00040F00400206484F83C501FE0B9F1FF3F7A
:100FD00008D0FFF757FAA0EB0A0149450CD8B9F140
:100FE000000F09D02068012F13D0806926EA000085
:100FF0000004000C0BD0CFE744F8305F84F80D807C
:10100000A573206940F02000206125730120BDE810
:10101000F0874069EAE770B516460D4604460DE0D4
:101020002046FFF7EEFE08B1012070BD681C05D018
:10103000FFF728FA801BA84207D835B1206840691D
:10104000C0430006ECD4002070BD002044F8300FEF
:1010500020216173A073216941F020012161207377
:10106000E2E7000030B587B014216846FFF7E8F8E2
:101070001A480024016841F004010160016801F090
:1010800004010591016841F001010160016801F06E
:1010900001010591016841F0020101600068104DF5
:1010A00000F002000590002220212846FFF7E4F915
:1010B0004FF4005000900B48CDE9010469460A48FE
:1010C000FFF710F9202000900120CDE901046946C6
:1010D00028460394FFF706F907B030BD30380240C8
:1010E0000000024000002110000802400D4810B529
:1010F0000B4901600C49416000214FF4804281603E
:10110000C0E9031241618161C1610162FFF7C0F969
:10111000002803D0BDE81040FFF7D0B810BD000094
:101120000054004010000020A0860100FEE7FEE70A
:1011300070477047FFF73ABB30B593B0302168462F
:10114000FFF77EF814210CA8FFF77AF81E48002458
:10115000016841F080510160006800F080501190FA
:101160001A48016821F4404141F4004101600068DF
:10117000022500F4404011900120039010200095BA
:1011800006950490CDE907404FF4A870099004201B
:101190000A9007200B906846FFF770FC08B172B602
:1011A000FEE70F20CDE90C054FF48050CDE90E404D
:1011B00002210CA81094FFF787FB002801D072B61B
:1011C000FEE713B030BD0000403802400070004020
:1011D0000548016841F47001016003494FF0006067
:1011E000803908607047000088ED00E0FEE70907DD
:1011F000090E002804DB00F1E02080F8001470479D
:1012000000F00F0000F1E02080F8141D704702E0AC
:1012100008C8121F08C1002AFAD170477047002081
:1012200001E001C1121F002AFBD1704710B5322026
:10123000FFF746F8302000F043F80520FFF740F8AC
:10124000302000F03DF80120FFF73AF8302000F0A0
:1012500037F80A20FFF734F8202000F031F80A2090
:10126000FFF72EF8282000F02BF80120FFF728F8D0
:10127000082000F025F80120FFF722F8012000F0F7
:101280001FF80120FFF71CF80120FFF719F80620CE
:1012900000F016F80120FFF713F8BDE810400C200D
:1012A00000F00EB8012802D0022805D102E041F07A
:1012B000800101E041F0C001491EC8B2AFF30080D7
:1012C0001CB500F0F00141F00C028DF8042041F053
:1012D000080100018DF8051040F00C018DF8061092
:1012E00040F008008DF8070064200090042301AA54
:1012F0004E210248FFF790F91CBD000010000020AD
:101300001CB500F0F00141F00D028DF8042041F011
:10131000090100018DF8051040F00D018DF806104F
:1013200040F009008DF8070064200090042301AA12
:101330004E210248FFF770F91CBD0000100000208C
:1013400010B5044602E0641CFFF7DAFF207800289D
:10135000F9D110BDFFF732FAFFF7EEFEFFF782FE7C
:10136000FFF7C4FEC820FEF7ABFFFFF75FFF642066
:10137000FEF7A6FF05210120FFF794FF6420FEF78A
:101380009FFF07A0FFF7DCFF6420FEF799FF052110
:101390000220FFF787FF05A0FFF7D2FFFEE700005E
:1013A0004D415354544543480000000057494C4CAC
:1013B00042555254000000000000000000000000F0
:1013C00001020304060708090000000001020304EB
:1013D000F013000800000020100000000E120008AA
:1013E0000014000810000020580400001E1200081D
:1013F0000100000010000000000000000024F400C4
:040000050800019559
:00000001FF
